:100000000C942E000C9438000C9438000C9438009A
:100010000C9438000C9438000C9438000C94380080
:100020000C9438000C9438000C9438000C94380070
:100030000C9438000C9438000C9438000C94380060
:100040000C9438000C9438000C9438000C94380050
:100050000C9438000C9438000C94380011241FBE06
:10006000CFEFD4E0DEBFCDBF0E9460000C946B00E8
:100070000C94000080EC8093E40087EB8093E50013
:1000800086E08093E6008FE08093E7002F9A089542
:10009000E1E8F0E0808184608083089584E08093CB
:1000A000EC00ECEEF0E094E01F99FECF1F9BFECF3A
:1000B0008081803411F080E401C0892F8083F4CFE7
:1000C000E1E6F0E080E8808310820E943A000E941E
:0A00D00048000E944E00F894FFCF94
:00000001FF
