:100000000C9438000C9442000C9442000C94420072
:100010000C9442000C9442000C9442000C94420058
:100020000C9442000C9442000C9442000C94420048
:100030000C9442000C9442000C9442000C94420038
:100040000C9442000C9442000C9442000C94420028
:100050000C9442000C9442000C9442009300B300B4
:10006000C400E40004011D0145016D018201AA01E3
:1000700011241FBECFEFD4E0DEBFCDBF0E94DA0156
:100080000C941A020C94000080EC8093E40087EB3F
:100090008093E50086E08093E6008FE08093E700A0
:1000A0000895CF92DF92EF92FF920F931F93CF9319
:1000B000DF93C82E6630710508F073C160FD03C080
:1000C00090E084E002C094E080E0769567958B0133
:1000D00004511F4FAB014F505F4FEB01CA50DF4F30
:1000E000DB01A550BF4F2FE030E002C0220F331FCD
:1000F0008A95E2F7F801808182238083FA0180816A
:10010000822380838881822388838C9128232C9367
:10011000D12CF601F097EA30F10508F042C1E25D1A
:10012000FF4F0C94140221E030E0092E02C0220F90
:10013000331F0A94E2F7F8018081822B808365E007
:1001400070E0FB0102C0EE0FFF1F9A95E2F7CF01AE
:10015000FA019081982B90839881892B88838C91C8
:10016000282B2C931EC121E030E0B90102C0660F9C
:10017000771F9A95E2F7CB01FA019081982B908333
:100180009881892B88830DC121E030E0092E02C0BF
:10019000220F331F0A94E2F7F8018081822B8083BB
:1001A000FA018081822B80834EE050E0BA0102C0C8
:1001B000660F771F9A95E2F7CB019881892B888388
:1001C0008C91282B2C93EDC021E030E0092E02C049
:1001D000220F331F0A94E2F7F8018081822B80837B
:1001E000FA018081822B80834BE050E0BA0102C08B
:1001F000660F771F9A95E2F7CB019881892B888348
:100200008C91282B2C93CDC025E030E0092E02C024
:10021000220F331F0A94E2F7FA018081282B2083F2
:100220002BE030E0A90102C0440F551F9A95E2F778
:10023000CA019881892B8883B4C021E030E0092E5F
:1002400002C0220F331F0A94E2F7F8018081822B4B
:10025000808364E070E0092E02C0660F771F0A9465
:10026000E2F7FA018081682B60834BE050E0BA012D
:1002700002C0660F771F9A95E2F7CB019881892B10
:1002800088838C91282B2C938CC021E030E0092EA0
:1002900002C0220F331F0A94E2F7F8018081822BFB
:1002A000808364E070E0092E02C0660F771F0A9415
:1002B000E2F7FA018081682B60834FE050E0BA01D9
:1002C00002C0660F771F9A95E2F7CB019881892BC0
:1002D00088838C91282B2C9364C021E030E0F901B5
:1002E00002C0EE0FFF1F9A95E2F7CF01F80190814F
:1002F000982B9083FA019081982B90839881892B79
:1003000088834FC021E030E0092E02C0220F331F46
:100310000A94E2F7F8018081822B808365E070E027
:10032000092E02C0660F771F0A94E2F7FA01808156
:10033000682B60834FE050E0BA0102C0660F771F60
:100340009A95E2F7CB019881892B88838C91282B91
:100350002C9327C021E030E0092E02C0220F331F6A
:100360000A94E2F7F8018081822B808365E070E0D7
:10037000092E02C0660F771F0A94E2F7FA01808106
:10038000682B60834BE050E0BA0102C0660F771F14
:100390009A95E2F7CB019881892B88838C91282B41
:1003A0002C93DF91CF911F910F91FF90EF90DF90F1
:1003B000CF900895E1E6F0E080E8808310820E940B
:1003C000440060E070E080E30E94510061E070E072
:1003D00081E30E94510062E070E082E30E945100DC
:1003E00063E070E083E30E94510064E070E084E326
:1003F0000E94510065E070E085E30E94510060E0DA
:1004000070E086E30E94510061E070E087E30E94A3
:10041000510062E070E088E30E94510063E070E008
:1004200089E30E945100FFCFEE0FFF1F0590F4916A
:08043000E02D0994F894FFCFC0
:00000001FF
