:100000000C9438000C944A000C944A000C944A005A
:100010000C944A000C944A000C944A000C944A0038
:100020000C944A000C944A000C944A000C944A0028
:100030000C944A000C944A000C944A000C944A0018
:100040000C944A000C944A000C944A000C944A0008
:100050000C944A000C944A000C944A009000B000A2
:10006000C100E10001011A0142016A017F01A701FB
:1000700011241FBECFEFD4E0DEBFCDBF21E0A0E052
:10008000B1E001C01D92A230B207E1F70E94F30275
:100090000C9441030C94000080EC8093E40087EB07
:1000A0008093E50086E08093E6008FE08093E70090
:1000B0000895E1E6F0E080E880831082E1E8F0E076
:1000C0008081846080830895CF92DF92EF92FF92C7
:1000D0000F931F93CF93DF93C82E6630710508F0FE
:1000E0008CC160FD73C15BC12FE030E002C0220F04
:1000F000331F8A95E2F7FA01808182238083888109
:10010000822388838C9128232C93D12CF601F0979D
:10011000EA30F10508F071C1E25DFF4F0C9419035C
:1001200021E030E0092E02C0220F331F0A94E2F7CB
:10013000F8018081822B808365E070E0FB0102C0C2
:10014000EE0FFF1F9A95E2F7CF01FA019081982BED
:1001500090839881892B88838C91282B2C934DC177
:1001600021E030E0B90102C0660F771F9A95E2F7EF
:10017000CB01FA019081982B90839881892B8883F9
:100180003CC121E030E0092E02C0220F331F0A9447
:10019000E2F7F8018081822B8083FA018081822B33
:1001A00080834EE050E0BA0102C0660F771F9A9537
:1001B000E2F7CB019881892B88838C91282B2C9393
:1001C0001CC121E030E0092E02C0220F331F0A9427
:1001D000E2F7F8018081822B8083FA018081822BF3
:1001E00080834BE050E0BA0102C0660F771F9A95FA
:1001F000E2F7CB019881892B88838C91282B2C9353
:10020000FCC025E030E0092E02C0220F331F0A9403
:10021000E2F7FA018081282B20832BE030E0A9014E
:1002200002C0440F551F9A95E2F7CA019881892BA5
:100230008883E3C021E030E0092E02C0220F331F83
:100240000A94E2F7F8018081822B808364E070E0F9
:10025000092E02C0660F771F0A94E2F7FA01808127
:10026000682B60834BE050E0BA0102C0660F771F35
:100270009A95E2F7CB019881892B88838C91282B62
:100280002C93BBC021E030E0092E02C0220F331FA7
:100290000A94E2F7F8018081822B808364E070E0A9
:1002A000092E02C0660F771F0A94E2F7FA018081D7
:1002B000682B60834FE050E0BA0102C0660F771FE1
:1002C0009A95E2F7CB019881892B88838C91282B12
:1002D0002C9393C021E030E0F90102C0EE0FFF1F24
:1002E0009A95E2F7CF01F8019081982B9083FA015B
:1002F0009081982B90839881892B88837EC021E000
:1003000030E0092E02C0220F331F0A94E2F7F801F1
:100310008081822B808365E070E0092E02C0660F29
:10032000771F0A94E2F7FA018081682B60834FE01F
:1003300050E0BA0102C0660F771F9A95E2F7CB0131
:100340009881892B88838C91282B2C9356C021E08F
:1003500030E0092E02C0220F331F0A94E2F7F801A1
:100360008081822B808365E070E0092E02C0660FD9
:10037000771F0A94E2F7FA018081682B60834BE0D3
:1003800050E0BA0102C0660F771F9A95E2F7CB01E1
:100390009881892B88838C91282B2C932EC076955D
:1003A00067958B0104511F4FAB014F505F4FEB011D
:1003B000CA50DF4FDB01A550BF4F2CEE30E0F901F2
:1003C0008081867F808390E084E08ECE76956795ED
:1003D0008B0104511F4FAB014F505F4FEB01CA50CF
:1003E000DF4FDB01A550BF4F2CEE30E0F9018081DB
:1003F0008F76808394E080E077CEDF91CF911F915C
:100400000F91FF90EF90DF90CF9008958F929F9281
:10041000AF92BF92CF92DF92EF92FF92CF93DF9392
:100420006B017C01C5E0D0E00F2EFAE08F2E912CFD
:10043000A12CB12CF02DC701B601A50194010E9499
:10044000FA0269017A01862FBE01805D0E94640074
:1004500021971C141D041E041F0424F4CF3F8FEFAA
:10046000D80749F7DF91CF91FF90EF90DF90CF90C1
:10047000BF90AF909F908F9008958091840090914D
:100480008500992384F4ECEEF0E080818262808321
:10049000EDEEF0E0808184648083EFEEF0E0808117
:1004A000866680830895ECEEF0E080818D7D808308
:1004B000EDEEF0E080818B7B8083EFEEF0E08081D9
:1004C0008979808308951F990DC0809100019091D2
:1004D0000101892B49F581E090E09093010180931F
:1004E000000108951F9B22C080910001909101019D
:1004F000892BE1F010920101109200018091EC0033
:1005000082FF09C0ECEEF0E080818B7B80838081EC
:10051000806480830895ECEEF0E080818B7B8083A3
:1005200080818460808308951F99E4CF08958F921D
:100530009F92AF92BF92CF92DF92EF92FF92CF93B2
:10054000DF9364307105810591053CF14B015C013D
:100550000F2EF3E0CF2ED12CE12CF12CF02DC3E0A7
:10056000D0E00E9463020E943D02C501B401A701D0
:1005700096010E94FA02672B682B692B89F022965C
:100580006E010D2E000CEE08FF08C814D904EA0411
:10059000FB043CF381E090E005C081E090E002C004
:1005A00080E090E0DF91CF91FF90EF90DF90CF90CF
:1005B000BF90AF909F908F90089584E08093EC005F
:1005C000C9EAD1E66E010D2E000CEE08FF08C70146
:1005D000B6010E949702019721F4C701B6010E945B
:1005E00006022296EFCF2F9A0E944C000E945900DB
:1005F0000E94DD02052E97FB1EF400940E94110359
:1006000057FD07D00E941F0307FC03D04EF40C9443
:10061000110350954095309521953F4F4F4F5F4FB7
:10062000089590958095709561957F4F8F4F9F4F5E
:100630000895EE0FFF1F0590F491E02D0994A1E2BB
:100640001A2EAA1BBB1BFD010DC0AA1FBB1FEE1F4C
:10065000FF1FA217B307E407F50720F0A21BB30B97
:10066000E40BF50B661F771F881F991F1A9469F713
:1006700060957095809590959B01AC01BD01CF016F
:060680000895F894FFCF7D
:00000001FF
